{
	"contracts/ExampleMappingStruct.sol": {
		"MappingStructExample": {
			"abi": [
				{
					"inputs": [
						{
							"internalType": "address",
							"name": "",
							"type": "address"
						}
					],
					"name": "balances",
					"outputs": [
						{
							"internalType": "uint256",
							"name": "totalBalance",
							"type": "uint256"
						},
						{
							"internalType": "uint256",
							"name": "numDeposits",
							"type": "uint256"
						},
						{
							"internalType": "uint256",
							"name": "numWithdrawals",
							"type": "uint256"
						}
					],
					"stateMutability": "view",
					"type": "function"
				},
				{
					"inputs": [],
					"name": "depositeMoney",
					"outputs": [],
					"stateMutability": "payable",
					"type": "function"
				},
				{
					"inputs": [
						{
							"internalType": "address",
							"name": "_from",
							"type": "address"
						},
						{
							"internalType": "uint256",
							"name": "_indexDeposit",
							"type": "uint256"
						}
					],
					"name": "getDepositTransaction",
					"outputs": [
						{
							"components": [
								{
									"internalType": "uint256",
									"name": "amount",
									"type": "uint256"
								},
								{
									"internalType": "uint256",
									"name": "timestamp",
									"type": "uint256"
								}
							],
							"internalType": "struct MappingStructExample.Transaction",
							"name": "",
							"type": "tuple"
						}
					],
					"stateMutability": "view",
					"type": "function"
				},
				{
					"inputs": [
						{
							"internalType": "address",
							"name": "_of",
							"type": "address"
						},
						{
							"internalType": "uint256",
							"name": "_indexWithdraw",
							"type": "uint256"
						}
					],
					"name": "getWithdrawTransaction",
					"outputs": [
						{
							"components": [
								{
									"internalType": "uint256",
									"name": "amount",
									"type": "uint256"
								},
								{
									"internalType": "uint256",
									"name": "timestamp",
									"type": "uint256"
								}
							],
							"internalType": "struct MappingStructExample.Transaction",
							"name": "",
							"type": "tuple"
						}
					],
					"stateMutability": "view",
					"type": "function"
				},
				{
					"inputs": [
						{
							"internalType": "address payable",
							"name": "_to",
							"type": "address"
						},
						{
							"internalType": "uint256",
							"name": "_amount",
							"type": "uint256"
						}
					],
					"name": "withdrawMoney",
					"outputs": [],
					"stateMutability": "nonpayable",
					"type": "function"
				}
			],
			"devdoc": {
				"kind": "dev",
				"methods": {},
				"version": 1
			},
			"evm": {
				"assembly": "    /* \"contracts/ExampleMappingStruct.sol\":71:1628  contract MappingStructExample {... */\n  mstore(0x40, 0x80)\n  callvalue\n  dup1\n  iszero\n  tag_1\n  jumpi\n  0x00\n  dup1\n  revert\ntag_1:\n  pop\n  dataSize(sub_0)\n  dup1\n  dataOffset(sub_0)\n  0x00\n  codecopy\n  0x00\n  return\nstop\n\nsub_0: assembly {\n        /* \"contracts/ExampleMappingStruct.sol\":71:1628  contract MappingStructExample {... */\n      mstore(0x40, 0x80)\n      jumpi(tag_1, lt(calldatasize, 0x04))\n      shr(0xe0, calldataload(0x00))\n      dup1\n      0x1a21482d\n      eq\n      tag_2\n      jumpi\n      dup1\n      0x27e235e3\n      eq\n      tag_3\n      jumpi\n      dup1\n      0x3f925f7a\n      eq\n      tag_4\n      jumpi\n      dup1\n      0x5421b037\n      eq\n      tag_5\n      jumpi\n      dup1\n      0xf274c897\n      eq\n      tag_6\n      jumpi\n    tag_1:\n      0x00\n      dup1\n      revert\n        /* \"contracts/ExampleMappingStruct.sol\":1455:1625  function getWithdrawTransaction(address _of, uint _indexWithdraw) public view returns(Transaction memory){... */\n    tag_2:\n      callvalue\n      dup1\n      iszero\n      tag_7\n      jumpi\n      0x00\n      dup1\n      revert\n    tag_7:\n      pop\n      tag_8\n      0x04\n      dup1\n      calldatasize\n      sub\n      dup2\n      add\n      swap1\n      tag_9\n      swap2\n      swap1\n      tag_10\n      jump\t// in\n    tag_9:\n      tag_11\n      jump\t// in\n    tag_8:\n      mload(0x40)\n      tag_12\n      swap2\n      swap1\n      tag_13\n      jump\t// in\n    tag_12:\n      mload(0x40)\n      dup1\n      swap2\n      sub\n      swap1\n      return\n        /* \"contracts/ExampleMappingStruct.sol\":392:435  mapping(address => Balance) public balances */\n    tag_3:\n      callvalue\n      dup1\n      iszero\n      tag_14\n      jumpi\n      0x00\n      dup1\n      revert\n    tag_14:\n      pop\n      tag_15\n      0x04\n      dup1\n      calldatasize\n      sub\n      dup2\n      add\n      swap1\n      tag_16\n      swap2\n      swap1\n      tag_17\n      jump\t// in\n    tag_16:\n      tag_18\n      jump\t// in\n    tag_15:\n      mload(0x40)\n      tag_19\n      swap4\n      swap3\n      swap2\n      swap1\n      tag_20\n      jump\t// in\n    tag_19:\n      mload(0x40)\n      dup1\n      swap2\n      sub\n      swap1\n      return\n        /* \"contracts/ExampleMappingStruct.sol\":442:751  function depositeMoney() public payable {... */\n    tag_4:\n      tag_21\n      tag_22\n      jump\t// in\n    tag_21:\n      stop\n        /* \"contracts/ExampleMappingStruct.sol\":803:971  function getDepositTransaction(address _from, uint _indexDeposit) public view returns(Transaction memory){... */\n    tag_5:\n      callvalue\n      dup1\n      iszero\n      tag_23\n      jumpi\n      0x00\n      dup1\n      revert\n    tag_23:\n      pop\n      tag_24\n      0x04\n      dup1\n      calldatasize\n      sub\n      dup2\n      add\n      swap1\n      tag_25\n      swap2\n      swap1\n      tag_10\n      jump\t// in\n    tag_25:\n      tag_26\n      jump\t// in\n    tag_24:\n      mload(0x40)\n      tag_27\n      swap2\n      swap1\n      tag_13\n      jump\t// in\n    tag_27:\n      mload(0x40)\n      dup1\n      swap2\n      sub\n      swap1\n      return\n        /* \"contracts/ExampleMappingStruct.sol\":982:1401  function withdrawMoney(address payable _to, uint _amount) public {... */\n    tag_6:\n      callvalue\n      dup1\n      iszero\n      tag_28\n      jumpi\n      0x00\n      dup1\n      revert\n    tag_28:\n      pop\n      tag_29\n      0x04\n      dup1\n      calldatasize\n      sub\n      dup2\n      add\n      swap1\n      tag_30\n      swap2\n      swap1\n      tag_31\n      jump\t// in\n    tag_30:\n      tag_32\n      jump\t// in\n    tag_29:\n      stop\n        /* \"contracts/ExampleMappingStruct.sol\":1455:1625  function getWithdrawTransaction(address _of, uint _indexWithdraw) public view returns(Transaction memory){... */\n    tag_11:\n        /* \"contracts/ExampleMappingStruct.sol\":1541:1559  Transaction memory */\n      tag_33\n      tag_34\n      jump\t// in\n    tag_33:\n        /* \"contracts/ExampleMappingStruct.sol\":1577:1585  balances */\n      0x00\n        /* \"contracts/ExampleMappingStruct.sol\":1577:1590  balances[_of] */\n      dup1\n        /* \"contracts/ExampleMappingStruct.sol\":1586:1589  _of */\n      dup5\n        /* \"contracts/ExampleMappingStruct.sol\":1577:1590  balances[_of] */\n      0xffffffffffffffffffffffffffffffffffffffff\n      and\n      0xffffffffffffffffffffffffffffffffffffffff\n      and\n      dup2\n      mstore\n      0x20\n      add\n      swap1\n      dup2\n      mstore\n      0x20\n      add\n      0x00\n      keccak256\n        /* \"contracts/ExampleMappingStruct.sol\":1577:1602  balances[_of].withdrawals */\n      0x04\n      add\n        /* \"contracts/ExampleMappingStruct.sol\":1577:1618  balances[_of].withdrawals[_indexWithdraw] */\n      0x00\n        /* \"contracts/ExampleMappingStruct.sol\":1603:1617  _indexWithdraw */\n      dup4\n        /* \"contracts/ExampleMappingStruct.sol\":1577:1618  balances[_of].withdrawals[_indexWithdraw] */\n      dup2\n      mstore\n      0x20\n      add\n      swap1\n      dup2\n      mstore\n      0x20\n      add\n      0x00\n      keccak256\n        /* \"contracts/ExampleMappingStruct.sol\":1570:1618  return balances[_of].withdrawals[_indexWithdraw] */\n      mload(0x40)\n      dup1\n      0x40\n      add\n      0x40\n      mstore\n      swap1\n      dup2\n      0x00\n      dup3\n      add\n      sload\n      dup2\n      mstore\n      0x20\n      add\n      0x01\n      dup3\n      add\n      sload\n      dup2\n      mstore\n      pop\n      pop\n      swap1\n      pop\n        /* \"contracts/ExampleMappingStruct.sol\":1455:1625  function getWithdrawTransaction(address _of, uint _indexWithdraw) public view returns(Transaction memory){... */\n      swap3\n      swap2\n      pop\n      pop\n      jump\t// out\n        /* \"contracts/ExampleMappingStruct.sol\":392:435  mapping(address => Balance) public balances */\n    tag_18:\n      mstore(0x20, 0x00)\n      dup1\n      0x00\n      mstore\n      keccak256(0x00, 0x40)\n      0x00\n      swap2\n      pop\n      swap1\n      pop\n      dup1\n      0x00\n      add\n      sload\n      swap1\n      dup1\n      0x01\n      add\n      sload\n      swap1\n      dup1\n      0x02\n      add\n      sload\n      swap1\n      pop\n      dup4\n      jump\t// out\n        /* \"contracts/ExampleMappingStruct.sol\":442:751  function depositeMoney() public payable {... */\n    tag_22:\n        /* \"contracts/ExampleMappingStruct.sol\":529:538  msg.value */\n      callvalue\n        /* \"contracts/ExampleMappingStruct.sol\":492:500  balances */\n      0x00\n        /* \"contracts/ExampleMappingStruct.sol\":492:512  balances[msg.sender] */\n      dup1\n        /* \"contracts/ExampleMappingStruct.sol\":501:511  msg.sender */\n      caller\n        /* \"contracts/ExampleMappingStruct.sol\":492:512  balances[msg.sender] */\n      0xffffffffffffffffffffffffffffffffffffffff\n      and\n      0xffffffffffffffffffffffffffffffffffffffff\n      and\n      dup2\n      mstore\n      0x20\n      add\n      swap1\n      dup2\n      mstore\n      0x20\n      add\n      0x00\n      keccak256\n        /* \"contracts/ExampleMappingStruct.sol\":492:525  balances[msg.sender].totalBalance */\n      0x00\n      add\n      0x00\n        /* \"contracts/ExampleMappingStruct.sol\":492:538  balances[msg.sender].totalBalance += msg.value */\n      dup3\n      dup3\n      sload\n      tag_37\n      swap2\n      swap1\n      tag_38\n      jump\t// in\n    tag_37:\n      swap3\n      pop\n      pop\n      dup2\n      swap1\n      sstore\n      pop\n        /* \"contracts/ExampleMappingStruct.sol\":548:574  Transaction memory deposit */\n      0x00\n        /* \"contracts/ExampleMappingStruct.sol\":577:616  Transaction(msg.value, block.timestamp) */\n      mload(0x40)\n      dup1\n      0x40\n      add\n      0x40\n      mstore\n      dup1\n        /* \"contracts/ExampleMappingStruct.sol\":589:598  msg.value */\n      callvalue\n        /* \"contracts/ExampleMappingStruct.sol\":577:616  Transaction(msg.value, block.timestamp) */\n      dup2\n      mstore\n      0x20\n      add\n        /* \"contracts/ExampleMappingStruct.sol\":600:615  block.timestamp */\n      timestamp\n        /* \"contracts/ExampleMappingStruct.sol\":577:616  Transaction(msg.value, block.timestamp) */\n      dup2\n      mstore\n      pop\n        /* \"contracts/ExampleMappingStruct.sol\":548:616  Transaction memory deposit = Transaction(msg.value, block.timestamp) */\n      swap1\n      pop\n        /* \"contracts/ExampleMappingStruct.sol\":692:699  deposit */\n      dup1\n        /* \"contracts/ExampleMappingStruct.sol\":626:634  balances */\n      0x00\n        /* \"contracts/ExampleMappingStruct.sol\":626:646  balances[msg.sender] */\n      dup1\n        /* \"contracts/ExampleMappingStruct.sol\":635:645  msg.sender */\n      caller\n        /* \"contracts/ExampleMappingStruct.sol\":626:646  balances[msg.sender] */\n      0xffffffffffffffffffffffffffffffffffffffff\n      and\n      0xffffffffffffffffffffffffffffffffffffffff\n      and\n      dup2\n      mstore\n      0x20\n      add\n      swap1\n      dup2\n      mstore\n      0x20\n      add\n      0x00\n      keccak256\n        /* \"contracts/ExampleMappingStruct.sol\":626:655  balances[msg.sender].deposits */\n      0x03\n      add\n        /* \"contracts/ExampleMappingStruct.sol\":626:689  balances[msg.sender].deposits[balances[msg.sender].numDeposits] */\n      0x00\n        /* \"contracts/ExampleMappingStruct.sol\":656:664  balances */\n      dup1\n        /* \"contracts/ExampleMappingStruct.sol\":656:676  balances[msg.sender] */\n      0x00\n        /* \"contracts/ExampleMappingStruct.sol\":665:675  msg.sender */\n      caller\n        /* \"contracts/ExampleMappingStruct.sol\":656:676  balances[msg.sender] */\n      0xffffffffffffffffffffffffffffffffffffffff\n      and\n      0xffffffffffffffffffffffffffffffffffffffff\n      and\n      dup2\n      mstore\n      0x20\n      add\n      swap1\n      dup2\n      mstore\n      0x20\n      add\n      0x00\n      keccak256\n        /* \"contracts/ExampleMappingStruct.sol\":656:688  balances[msg.sender].numDeposits */\n      0x01\n      add\n      sload\n        /* \"contracts/ExampleMappingStruct.sol\":626:689  balances[msg.sender].deposits[balances[msg.sender].numDeposits] */\n      dup2\n      mstore\n      0x20\n      add\n      swap1\n      dup2\n      mstore\n      0x20\n      add\n      0x00\n      keccak256\n        /* \"contracts/ExampleMappingStruct.sol\":626:699  balances[msg.sender].deposits[balances[msg.sender].numDeposits] = deposit */\n      0x00\n      dup3\n      add\n      mload\n      dup2\n      0x00\n      add\n      sstore\n      0x20\n      dup3\n      add\n      mload\n      dup2\n      0x01\n      add\n      sstore\n      swap1\n      pop\n      pop\n        /* \"contracts/ExampleMappingStruct.sol\":710:718  balances */\n      0x00\n        /* \"contracts/ExampleMappingStruct.sol\":710:730  balances[msg.sender] */\n      dup1\n        /* \"contracts/ExampleMappingStruct.sol\":719:729  msg.sender */\n      caller\n        /* \"contracts/ExampleMappingStruct.sol\":710:730  balances[msg.sender] */\n      0xffffffffffffffffffffffffffffffffffffffff\n      and\n      0xffffffffffffffffffffffffffffffffffffffff\n      and\n      dup2\n      mstore\n      0x20\n      add\n      swap1\n      dup2\n      mstore\n      0x20\n      add\n      0x00\n      keccak256\n        /* \"contracts/ExampleMappingStruct.sol\":710:742  balances[msg.sender].numDeposits */\n      0x01\n      add\n      0x00\n        /* \"contracts/ExampleMappingStruct.sol\":710:744  balances[msg.sender].numDeposits++ */\n      dup2\n      sload\n      dup1\n      swap3\n      swap2\n      swap1\n      tag_39\n      swap1\n      tag_40\n      jump\t// in\n    tag_39:\n      swap2\n      swap1\n      pop\n      sstore\n      pop\n        /* \"contracts/ExampleMappingStruct.sol\":482:751  {... */\n      pop\n        /* \"contracts/ExampleMappingStruct.sol\":442:751  function depositeMoney() public payable {... */\n      jump\t// out\n        /* \"contracts/ExampleMappingStruct.sol\":803:971  function getDepositTransaction(address _from, uint _indexDeposit) public view returns(Transaction memory){... */\n    tag_26:\n        /* \"contracts/ExampleMappingStruct.sol\":889:907  Transaction memory */\n      tag_41\n      tag_34\n      jump\t// in\n    tag_41:\n        /* \"contracts/ExampleMappingStruct.sol\":925:933  balances */\n      0x00\n        /* \"contracts/ExampleMappingStruct.sol\":925:940  balances[_from] */\n      dup1\n        /* \"contracts/ExampleMappingStruct.sol\":934:939  _from */\n      dup5\n        /* \"contracts/ExampleMappingStruct.sol\":925:940  balances[_from] */\n      0xffffffffffffffffffffffffffffffffffffffff\n      and\n      0xffffffffffffffffffffffffffffffffffffffff\n      and\n      dup2\n      mstore\n      0x20\n      add\n      swap1\n      dup2\n      mstore\n      0x20\n      add\n      0x00\n      keccak256\n        /* \"contracts/ExampleMappingStruct.sol\":925:949  balances[_from].deposits */\n      0x03\n      add\n        /* \"contracts/ExampleMappingStruct.sol\":925:964  balances[_from].deposits[_indexDeposit] */\n      0x00\n        /* \"contracts/ExampleMappingStruct.sol\":950:963  _indexDeposit */\n      dup4\n        /* \"contracts/ExampleMappingStruct.sol\":925:964  balances[_from].deposits[_indexDeposit] */\n      dup2\n      mstore\n      0x20\n      add\n      swap1\n      dup2\n      mstore\n      0x20\n      add\n      0x00\n      keccak256\n        /* \"contracts/ExampleMappingStruct.sol\":918:964  return balances[_from].deposits[_indexDeposit] */\n      mload(0x40)\n      dup1\n      0x40\n      add\n      0x40\n      mstore\n      swap1\n      dup2\n      0x00\n      dup3\n      add\n      sload\n      dup2\n      mstore\n      0x20\n      add\n      0x01\n      dup3\n      add\n      sload\n      dup2\n      mstore\n      pop\n      pop\n      swap1\n      pop\n        /* \"contracts/ExampleMappingStruct.sol\":803:971  function getDepositTransaction(address _from, uint _indexDeposit) public view returns(Transaction memory){... */\n      swap3\n      swap2\n      pop\n      pop\n      jump\t// out\n        /* \"contracts/ExampleMappingStruct.sol\":982:1401  function withdrawMoney(address payable _to, uint _amount) public {... */\n    tag_32:\n        /* \"contracts/ExampleMappingStruct.sol\":1094:1101  _amount */\n      dup1\n        /* \"contracts/ExampleMappingStruct.sol\":1057:1065  balances */\n      0x00\n        /* \"contracts/ExampleMappingStruct.sol\":1057:1077  balances[msg.sender] */\n      dup1\n        /* \"contracts/ExampleMappingStruct.sol\":1066:1076  msg.sender */\n      caller\n        /* \"contracts/ExampleMappingStruct.sol\":1057:1077  balances[msg.sender] */\n      0xffffffffffffffffffffffffffffffffffffffff\n      and\n      0xffffffffffffffffffffffffffffffffffffffff\n      and\n      dup2\n      mstore\n      0x20\n      add\n      swap1\n      dup2\n      mstore\n      0x20\n      add\n      0x00\n      keccak256\n        /* \"contracts/ExampleMappingStruct.sol\":1057:1090  balances[msg.sender].totalBalance */\n      0x00\n      add\n      0x00\n        /* \"contracts/ExampleMappingStruct.sol\":1057:1101  balances[msg.sender].totalBalance -= _amount */\n      dup3\n      dup3\n      sload\n      tag_44\n      swap2\n      swap1\n      tag_45\n      jump\t// in\n    tag_44:\n      swap3\n      pop\n      pop\n      dup2\n      swap1\n      sstore\n      pop\n        /* \"contracts/ExampleMappingStruct.sol\":1111:1138  Transaction memory withdraw */\n      0x00\n        /* \"contracts/ExampleMappingStruct.sol\":1141:1178  Transaction(_amount, block.timestamp) */\n      mload(0x40)\n      dup1\n      0x40\n      add\n      0x40\n      mstore\n      dup1\n        /* \"contracts/ExampleMappingStruct.sol\":1153:1160  _amount */\n      dup4\n        /* \"contracts/ExampleMappingStruct.sol\":1141:1178  Transaction(_amount, block.timestamp) */\n      dup2\n      mstore\n      0x20\n      add\n        /* \"contracts/ExampleMappingStruct.sol\":1162:1177  block.timestamp */\n      timestamp\n        /* \"contracts/ExampleMappingStruct.sol\":1141:1178  Transaction(_amount, block.timestamp) */\n      dup2\n      mstore\n      pop\n        /* \"contracts/ExampleMappingStruct.sol\":1111:1178  Transaction memory withdraw = Transaction(_amount, block.timestamp) */\n      swap1\n      pop\n        /* \"contracts/ExampleMappingStruct.sol\":1260:1268  withdraw */\n      dup1\n        /* \"contracts/ExampleMappingStruct.sol\":1188:1196  balances */\n      0x00\n        /* \"contracts/ExampleMappingStruct.sol\":1188:1208  balances[msg.sender] */\n      dup1\n        /* \"contracts/ExampleMappingStruct.sol\":1197:1207  msg.sender */\n      caller\n        /* \"contracts/ExampleMappingStruct.sol\":1188:1208  balances[msg.sender] */\n      0xffffffffffffffffffffffffffffffffffffffff\n      and\n      0xffffffffffffffffffffffffffffffffffffffff\n      and\n      dup2\n      mstore\n      0x20\n      add\n      swap1\n      dup2\n      mstore\n      0x20\n      add\n      0x00\n      keccak256\n        /* \"contracts/ExampleMappingStruct.sol\":1188:1220  balances[msg.sender].withdrawals */\n      0x04\n      add\n        /* \"contracts/ExampleMappingStruct.sol\":1188:1257  balances[msg.sender].withdrawals[balances[msg.sender].numWithdrawals] */\n      0x00\n        /* \"contracts/ExampleMappingStruct.sol\":1221:1229  balances */\n      dup1\n        /* \"contracts/ExampleMappingStruct.sol\":1221:1241  balances[msg.sender] */\n      0x00\n        /* \"contracts/ExampleMappingStruct.sol\":1230:1240  msg.sender */\n      caller\n        /* \"contracts/ExampleMappingStruct.sol\":1221:1241  balances[msg.sender] */\n      0xffffffffffffffffffffffffffffffffffffffff\n      and\n      0xffffffffffffffffffffffffffffffffffffffff\n      and\n      dup2\n      mstore\n      0x20\n      add\n      swap1\n      dup2\n      mstore\n      0x20\n      add\n      0x00\n      keccak256\n        /* \"contracts/ExampleMappingStruct.sol\":1221:1256  balances[msg.sender].numWithdrawals */\n      0x02\n      add\n      sload\n        /* \"contracts/ExampleMappingStruct.sol\":1188:1257  balances[msg.sender].withdrawals[balances[msg.sender].numWithdrawals] */\n      dup2\n      mstore\n      0x20\n      add\n      swap1\n      dup2\n      mstore\n      0x20\n      add\n      0x00\n      keccak256\n        /* \"contracts/ExampleMappingStruct.sol\":1188:1268  balances[msg.sender].withdrawals[balances[msg.sender].numWithdrawals] = withdraw */\n      0x00\n      dup3\n      add\n      mload\n      dup2\n      0x00\n      add\n      sstore\n      0x20\n      dup3\n      add\n      mload\n      dup2\n      0x01\n      add\n      sstore\n      swap1\n      pop\n      pop\n        /* \"contracts/ExampleMappingStruct.sol\":1278:1286  balances */\n      0x00\n        /* \"contracts/ExampleMappingStruct.sol\":1278:1298  balances[msg.sender] */\n      dup1\n        /* \"contracts/ExampleMappingStruct.sol\":1287:1297  msg.sender */\n      caller\n        /* \"contracts/ExampleMappingStruct.sol\":1278:1298  balances[msg.sender] */\n      0xffffffffffffffffffffffffffffffffffffffff\n      and\n      0xffffffffffffffffffffffffffffffffffffffff\n      and\n      dup2\n      mstore\n      0x20\n      add\n      swap1\n      dup2\n      mstore\n      0x20\n      add\n      0x00\n      keccak256\n        /* \"contracts/ExampleMappingStruct.sol\":1278:1313  balances[msg.sender].numWithdrawals */\n      0x02\n      add\n      0x00\n        /* \"contracts/ExampleMappingStruct.sol\":1278:1315  balances[msg.sender].numWithdrawals++ */\n      dup2\n      sload\n      dup1\n      swap3\n      swap2\n      swap1\n      tag_46\n      swap1\n      tag_40\n      jump\t// in\n    tag_46:\n      swap2\n      swap1\n      pop\n      sstore\n      pop\n        /* \"contracts/ExampleMappingStruct.sol\":1325:1328  _to */\n      dup3\n        /* \"contracts/ExampleMappingStruct.sol\":1325:1337  _to.transfer */\n      0xffffffffffffffffffffffffffffffffffffffff\n      and\n        /* \"contracts/ExampleMappingStruct.sol\":1325:1346  _to.transfer(_amount) */\n      0x08fc\n        /* \"contracts/ExampleMappingStruct.sol\":1338:1345  _amount */\n      dup4\n        /* \"contracts/ExampleMappingStruct.sol\":1325:1346  _to.transfer(_amount) */\n      swap1\n      dup2\n      iszero\n      mul\n      swap1\n      mload(0x40)\n      0x00\n      mload(0x40)\n      dup1\n      dup4\n      sub\n      dup2\n      dup6\n      dup9\n      dup9\n      call\n      swap4\n      pop\n      pop\n      pop\n      pop\n      iszero\n      dup1\n      iszero\n      tag_48\n      jumpi\n      returndatasize\n      0x00\n      dup1\n      returndatacopy\n      revert(0x00, returndatasize)\n    tag_48:\n      pop\n        /* \"contracts/ExampleMappingStruct.sol\":1357:1365  balances */\n      0x00\n        /* \"contracts/ExampleMappingStruct.sol\":1357:1377  balances[msg.sender] */\n      dup1\n        /* \"contracts/ExampleMappingStruct.sol\":1366:1376  msg.sender */\n      caller\n        /* \"contracts/ExampleMappingStruct.sol\":1357:1377  balances[msg.sender] */\n      0xffffffffffffffffffffffffffffffffffffffff\n      and\n      0xffffffffffffffffffffffffffffffffffffffff\n      and\n      dup2\n      mstore\n      0x20\n      add\n      swap1\n      dup2\n      mstore\n      0x20\n      add\n      0x00\n      keccak256\n        /* \"contracts/ExampleMappingStruct.sol\":1357:1392  balances[msg.sender].numWithdrawals */\n      0x02\n      add\n      0x00\n        /* \"contracts/ExampleMappingStruct.sol\":1357:1394  balances[msg.sender].numWithdrawals++ */\n      dup2\n      sload\n      dup1\n      swap3\n      swap2\n      swap1\n      tag_49\n      swap1\n      tag_40\n      jump\t// in\n    tag_49:\n      swap2\n      swap1\n      pop\n      sstore\n      pop\n        /* \"contracts/ExampleMappingStruct.sol\":1047:1401  {... */\n      pop\n        /* \"contracts/ExampleMappingStruct.sol\":982:1401  function withdrawMoney(address payable _to, uint _amount) public {... */\n      pop\n      pop\n      jump\t// out\n    tag_34:\n      mload(0x40)\n      dup1\n      0x40\n      add\n      0x40\n      mstore\n      dup1\n      0x00\n      dup2\n      mstore\n      0x20\n      add\n      0x00\n      dup2\n      mstore\n      pop\n      swap1\n      jump\t// out\n        /* \"#utility.yul\":88:205   */\n    tag_51:\n        /* \"#utility.yul\":197:198   */\n      0x00\n        /* \"#utility.yul\":194:195   */\n      dup1\n        /* \"#utility.yul\":187:199   */\n      revert\n        /* \"#utility.yul\":334:460   */\n    tag_53:\n        /* \"#utility.yul\":371:378   */\n      0x00\n        /* \"#utility.yul\":411:453   */\n      0xffffffffffffffffffffffffffffffffffffffff\n        /* \"#utility.yul\":404:409   */\n      dup3\n        /* \"#utility.yul\":400:454   */\n      and\n        /* \"#utility.yul\":389:454   */\n      swap1\n      pop\n        /* \"#utility.yul\":334:460   */\n      swap2\n      swap1\n      pop\n      jump\t// out\n        /* \"#utility.yul\":466:562   */\n    tag_54:\n        /* \"#utility.yul\":503:510   */\n      0x00\n        /* \"#utility.yul\":532:556   */\n      tag_73\n        /* \"#utility.yul\":550:555   */\n      dup3\n        /* \"#utility.yul\":532:556   */\n      tag_53\n      jump\t// in\n    tag_73:\n        /* \"#utility.yul\":521:556   */\n      swap1\n      pop\n        /* \"#utility.yul\":466:562   */\n      swap2\n      swap1\n      pop\n      jump\t// out\n        /* \"#utility.yul\":568:690   */\n    tag_55:\n        /* \"#utility.yul\":641:665   */\n      tag_75\n        /* \"#utility.yul\":659:664   */\n      dup2\n        /* \"#utility.yul\":641:665   */\n      tag_54\n      jump\t// in\n    tag_75:\n        /* \"#utility.yul\":634:639   */\n      dup2\n        /* \"#utility.yul\":631:666   */\n      eq\n        /* \"#utility.yul\":621:684   */\n      tag_76\n      jumpi\n        /* \"#utility.yul\":680:681   */\n      0x00\n        /* \"#utility.yul\":677:678   */\n      dup1\n        /* \"#utility.yul\":670:682   */\n      revert\n        /* \"#utility.yul\":621:684   */\n    tag_76:\n        /* \"#utility.yul\":568:690   */\n      pop\n      jump\t// out\n        /* \"#utility.yul\":696:835   */\n    tag_56:\n        /* \"#utility.yul\":742:747   */\n      0x00\n        /* \"#utility.yul\":780:786   */\n      dup2\n        /* \"#utility.yul\":767:787   */\n      calldataload\n        /* \"#utility.yul\":758:787   */\n      swap1\n      pop\n        /* \"#utility.yul\":796:829   */\n      tag_78\n        /* \"#utility.yul\":823:828   */\n      dup2\n        /* \"#utility.yul\":796:829   */\n      tag_55\n      jump\t// in\n    tag_78:\n        /* \"#utility.yul\":696:835   */\n      swap3\n      swap2\n      pop\n      pop\n      jump\t// out\n        /* \"#utility.yul\":841:918   */\n    tag_57:\n        /* \"#utility.yul\":878:885   */\n      0x00\n        /* \"#utility.yul\":907:912   */\n      dup2\n        /* \"#utility.yul\":896:912   */\n      swap1\n      pop\n        /* \"#utility.yul\":841:918   */\n      swap2\n      swap1\n      pop\n      jump\t// out\n        /* \"#utility.yul\":924:1046   */\n    tag_58:\n        /* \"#utility.yul\":997:1021   */\n      tag_81\n        /* \"#utility.yul\":1015:1020   */\n      dup2\n        /* \"#utility.yul\":997:1021   */\n      tag_57\n      jump\t// in\n    tag_81:\n        /* \"#utility.yul\":990:995   */\n      dup2\n        /* \"#utility.yul\":987:1022   */\n      eq\n        /* \"#utility.yul\":977:1040   */\n      tag_82\n      jumpi\n        /* \"#utility.yul\":1036:1037   */\n      0x00\n        /* \"#utility.yul\":1033:1034   */\n      dup1\n        /* \"#utility.yul\":1026:1038   */\n      revert\n        /* \"#utility.yul\":977:1040   */\n    tag_82:\n        /* \"#utility.yul\":924:1046   */\n      pop\n      jump\t// out\n        /* \"#utility.yul\":1052:1191   */\n    tag_59:\n        /* \"#utility.yul\":1098:1103   */\n      0x00\n        /* \"#utility.yul\":1136:1142   */\n      dup2\n        /* \"#utility.yul\":1123:1143   */\n      calldataload\n        /* \"#utility.yul\":1114:1143   */\n      swap1\n      pop\n        /* \"#utility.yul\":1152:1185   */\n      tag_84\n        /* \"#utility.yul\":1179:1184   */\n      dup2\n        /* \"#utility.yul\":1152:1185   */\n      tag_58\n      jump\t// in\n    tag_84:\n        /* \"#utility.yul\":1052:1191   */\n      swap3\n      swap2\n      pop\n      pop\n      jump\t// out\n        /* \"#utility.yul\":1197:1671   */\n    tag_10:\n        /* \"#utility.yul\":1265:1271   */\n      0x00\n        /* \"#utility.yul\":1273:1279   */\n      dup1\n        /* \"#utility.yul\":1322:1324   */\n      0x40\n        /* \"#utility.yul\":1310:1319   */\n      dup4\n        /* \"#utility.yul\":1301:1308   */\n      dup6\n        /* \"#utility.yul\":1297:1320   */\n      sub\n        /* \"#utility.yul\":1293:1325   */\n      slt\n        /* \"#utility.yul\":1290:1409   */\n      iszero\n      tag_86\n      jumpi\n        /* \"#utility.yul\":1328:1407   */\n      tag_87\n      tag_51\n      jump\t// in\n    tag_87:\n        /* \"#utility.yul\":1290:1409   */\n    tag_86:\n        /* \"#utility.yul\":1448:1449   */\n      0x00\n        /* \"#utility.yul\":1473:1526   */\n      tag_88\n        /* \"#utility.yul\":1518:1525   */\n      dup6\n        /* \"#utility.yul\":1509:1515   */\n      dup3\n        /* \"#utility.yul\":1498:1507   */\n      dup7\n        /* \"#utility.yul\":1494:1516   */\n      add\n        /* \"#utility.yul\":1473:1526   */\n      tag_56\n      jump\t// in\n    tag_88:\n        /* \"#utility.yul\":1463:1526   */\n      swap3\n      pop\n        /* \"#utility.yul\":1419:1536   */\n      pop\n        /* \"#utility.yul\":1575:1577   */\n      0x20\n        /* \"#utility.yul\":1601:1654   */\n      tag_89\n        /* \"#utility.yul\":1646:1653   */\n      dup6\n        /* \"#utility.yul\":1637:1643   */\n      dup3\n        /* \"#utility.yul\":1626:1635   */\n      dup7\n        /* \"#utility.yul\":1622:1644   */\n      add\n        /* \"#utility.yul\":1601:1654   */\n      tag_59\n      jump\t// in\n    tag_89:\n        /* \"#utility.yul\":1591:1654   */\n      swap2\n      pop\n        /* \"#utility.yul\":1546:1664   */\n      pop\n        /* \"#utility.yul\":1197:1671   */\n      swap3\n      pop\n      swap3\n      swap1\n      pop\n      jump\t// out\n        /* \"#utility.yul\":1677:1785   */\n    tag_60:\n        /* \"#utility.yul\":1754:1778   */\n      tag_91\n        /* \"#utility.yul\":1772:1777   */\n      dup2\n        /* \"#utility.yul\":1754:1778   */\n      tag_57\n      jump\t// in\n    tag_91:\n        /* \"#utility.yul\":1749:1752   */\n      dup3\n        /* \"#utility.yul\":1742:1779   */\n      mstore\n        /* \"#utility.yul\":1677:1785   */\n      pop\n      pop\n      jump\t// out\n        /* \"#utility.yul\":1881:2397   */\n    tag_61:\n        /* \"#utility.yul\":2030:2034   */\n      0x40\n        /* \"#utility.yul\":2025:2028   */\n      dup3\n        /* \"#utility.yul\":2021:2035   */\n      add\n        /* \"#utility.yul\":2119:2123   */\n      0x00\n        /* \"#utility.yul\":2112:2117   */\n      dup3\n        /* \"#utility.yul\":2108:2124   */\n      add\n        /* \"#utility.yul\":2102:2125   */\n      mload\n        /* \"#utility.yul\":2138:2201   */\n      tag_93\n        /* \"#utility.yul\":2195:2199   */\n      0x00\n        /* \"#utility.yul\":2190:2193   */\n      dup6\n        /* \"#utility.yul\":2186:2200   */\n      add\n        /* \"#utility.yul\":2172:2184   */\n      dup3\n        /* \"#utility.yul\":2138:2201   */\n      tag_60\n      jump\t// in\n    tag_93:\n        /* \"#utility.yul\":2045:2211   */\n      pop\n        /* \"#utility.yul\":2298:2302   */\n      0x20\n        /* \"#utility.yul\":2291:2296   */\n      dup3\n        /* \"#utility.yul\":2287:2303   */\n      add\n        /* \"#utility.yul\":2281:2304   */\n      mload\n        /* \"#utility.yul\":2317:2380   */\n      tag_94\n        /* \"#utility.yul\":2374:2378   */\n      0x20\n        /* \"#utility.yul\":2369:2372   */\n      dup6\n        /* \"#utility.yul\":2365:2379   */\n      add\n        /* \"#utility.yul\":2351:2363   */\n      dup3\n        /* \"#utility.yul\":2317:2380   */\n      tag_60\n      jump\t// in\n    tag_94:\n        /* \"#utility.yul\":2221:2390   */\n      pop\n        /* \"#utility.yul\":1999:2397   */\n      pop\n        /* \"#utility.yul\":1881:2397   */\n      pop\n      pop\n      jump\t// out\n        /* \"#utility.yul\":2403:2729   */\n    tag_13:\n        /* \"#utility.yul\":2548:2552   */\n      0x00\n        /* \"#utility.yul\":2586:2588   */\n      0x40\n        /* \"#utility.yul\":2575:2584   */\n      dup3\n        /* \"#utility.yul\":2571:2589   */\n      add\n        /* \"#utility.yul\":2563:2589   */\n      swap1\n      pop\n        /* \"#utility.yul\":2599:2722   */\n      tag_96\n        /* \"#utility.yul\":2719:2720   */\n      0x00\n        /* \"#utility.yul\":2708:2717   */\n      dup4\n        /* \"#utility.yul\":2704:2721   */\n      add\n        /* \"#utility.yul\":2695:2701   */\n      dup5\n        /* \"#utility.yul\":2599:2722   */\n      tag_61\n      jump\t// in\n    tag_96:\n        /* \"#utility.yul\":2403:2729   */\n      swap3\n      swap2\n      pop\n      pop\n      jump\t// out\n        /* \"#utility.yul\":2735:3064   */\n    tag_17:\n        /* \"#utility.yul\":2794:2800   */\n      0x00\n        /* \"#utility.yul\":2843:2845   */\n      0x20\n        /* \"#utility.yul\":2831:2840   */\n      dup3\n        /* \"#utility.yul\":2822:2829   */\n      dup5\n        /* \"#utility.yul\":2818:2841   */\n      sub\n        /* \"#utility.yul\":2814:2846   */\n      slt\n        /* \"#utility.yul\":2811:2930   */\n      iszero\n      tag_98\n      jumpi\n        /* \"#utility.yul\":2849:2928   */\n      tag_99\n      tag_51\n      jump\t// in\n    tag_99:\n        /* \"#utility.yul\":2811:2930   */\n    tag_98:\n        /* \"#utility.yul\":2969:2970   */\n      0x00\n        /* \"#utility.yul\":2994:3047   */\n      tag_100\n        /* \"#utility.yul\":3039:3046   */\n      dup5\n        /* \"#utility.yul\":3030:3036   */\n      dup3\n        /* \"#utility.yul\":3019:3028   */\n      dup6\n        /* \"#utility.yul\":3015:3037   */\n      add\n        /* \"#utility.yul\":2994:3047   */\n      tag_56\n      jump\t// in\n    tag_100:\n        /* \"#utility.yul\":2984:3047   */\n      swap2\n      pop\n        /* \"#utility.yul\":2940:3057   */\n      pop\n        /* \"#utility.yul\":2735:3064   */\n      swap3\n      swap2\n      pop\n      pop\n      jump\t// out\n        /* \"#utility.yul\":3070:3188   */\n    tag_62:\n        /* \"#utility.yul\":3157:3181   */\n      tag_102\n        /* \"#utility.yul\":3175:3180   */\n      dup2\n        /* \"#utility.yul\":3157:3181   */\n      tag_57\n      jump\t// in\n    tag_102:\n        /* \"#utility.yul\":3152:3155   */\n      dup3\n        /* \"#utility.yul\":3145:3182   */\n      mstore\n        /* \"#utility.yul\":3070:3188   */\n      pop\n      pop\n      jump\t// out\n        /* \"#utility.yul\":3194:3636   */\n    tag_20:\n        /* \"#utility.yul\":3343:3347   */\n      0x00\n        /* \"#utility.yul\":3381:3383   */\n      0x60\n        /* \"#utility.yul\":3370:3379   */\n      dup3\n        /* \"#utility.yul\":3366:3384   */\n      add\n        /* \"#utility.yul\":3358:3384   */\n      swap1\n      pop\n        /* \"#utility.yul\":3394:3465   */\n      tag_104\n        /* \"#utility.yul\":3462:3463   */\n      0x00\n        /* \"#utility.yul\":3451:3460   */\n      dup4\n        /* \"#utility.yul\":3447:3464   */\n      add\n        /* \"#utility.yul\":3438:3444   */\n      dup7\n        /* \"#utility.yul\":3394:3465   */\n      tag_62\n      jump\t// in\n    tag_104:\n        /* \"#utility.yul\":3475:3547   */\n      tag_105\n        /* \"#utility.yul\":3543:3545   */\n      0x20\n        /* \"#utility.yul\":3532:3541   */\n      dup4\n        /* \"#utility.yul\":3528:3546   */\n      add\n        /* \"#utility.yul\":3519:3525   */\n      dup6\n        /* \"#utility.yul\":3475:3547   */\n      tag_62\n      jump\t// in\n    tag_105:\n        /* \"#utility.yul\":3557:3629   */\n      tag_106\n        /* \"#utility.yul\":3625:3627   */\n      0x40\n        /* \"#utility.yul\":3614:3623   */\n      dup4\n        /* \"#utility.yul\":3610:3628   */\n      add\n        /* \"#utility.yul\":3601:3607   */\n      dup5\n        /* \"#utility.yul\":3557:3629   */\n      tag_62\n      jump\t// in\n    tag_106:\n        /* \"#utility.yul\":3194:3636   */\n      swap5\n      swap4\n      pop\n      pop\n      pop\n      pop\n      jump\t// out\n        /* \"#utility.yul\":3642:3746   */\n    tag_63:\n        /* \"#utility.yul\":3687:3694   */\n      0x00\n        /* \"#utility.yul\":3716:3740   */\n      tag_108\n        /* \"#utility.yul\":3734:3739   */\n      dup3\n        /* \"#utility.yul\":3716:3740   */\n      tag_53\n      jump\t// in\n    tag_108:\n        /* \"#utility.yul\":3705:3740   */\n      swap1\n      pop\n        /* \"#utility.yul\":3642:3746   */\n      swap2\n      swap1\n      pop\n      jump\t// out\n        /* \"#utility.yul\":3752:3890   */\n    tag_64:\n        /* \"#utility.yul\":3833:3865   */\n      tag_110\n        /* \"#utility.yul\":3859:3864   */\n      dup2\n        /* \"#utility.yul\":3833:3865   */\n      tag_63\n      jump\t// in\n    tag_110:\n        /* \"#utility.yul\":3826:3831   */\n      dup2\n        /* \"#utility.yul\":3823:3866   */\n      eq\n        /* \"#utility.yul\":3813:3884   */\n      tag_111\n      jumpi\n        /* \"#utility.yul\":3880:3881   */\n      0x00\n        /* \"#utility.yul\":3877:3878   */\n      dup1\n        /* \"#utility.yul\":3870:3882   */\n      revert\n        /* \"#utility.yul\":3813:3884   */\n    tag_111:\n        /* \"#utility.yul\":3752:3890   */\n      pop\n      jump\t// out\n        /* \"#utility.yul\":3896:4051   */\n    tag_65:\n        /* \"#utility.yul\":3950:3955   */\n      0x00\n        /* \"#utility.yul\":3988:3994   */\n      dup2\n        /* \"#utility.yul\":3975:3995   */\n      calldataload\n        /* \"#utility.yul\":3966:3995   */\n      swap1\n      pop\n        /* \"#utility.yul\":4004:4045   */\n      tag_113\n        /* \"#utility.yul\":4039:4044   */\n      dup2\n        /* \"#utility.yul\":4004:4045   */\n      tag_64\n      jump\t// in\n    tag_113:\n        /* \"#utility.yul\":3896:4051   */\n      swap3\n      swap2\n      pop\n      pop\n      jump\t// out\n        /* \"#utility.yul\":4057:4547   */\n    tag_31:\n        /* \"#utility.yul\":4133:4139   */\n      0x00\n        /* \"#utility.yul\":4141:4147   */\n      dup1\n        /* \"#utility.yul\":4190:4192   */\n      0x40\n        /* \"#utility.yul\":4178:4187   */\n      dup4\n        /* \"#utility.yul\":4169:4176   */\n      dup6\n        /* \"#utility.yul\":4165:4188   */\n      sub\n        /* \"#utility.yul\":4161:4193   */\n      slt\n        /* \"#utility.yul\":4158:4277   */\n      iszero\n      tag_115\n      jumpi\n        /* \"#utility.yul\":4196:4275   */\n      tag_116\n      tag_51\n      jump\t// in\n    tag_116:\n        /* \"#utility.yul\":4158:4277   */\n    tag_115:\n        /* \"#utility.yul\":4316:4317   */\n      0x00\n        /* \"#utility.yul\":4341:4402   */\n      tag_117\n        /* \"#utility.yul\":4394:4401   */\n      dup6\n        /* \"#utility.yul\":4385:4391   */\n      dup3\n        /* \"#utility.yul\":4374:4383   */\n      dup7\n        /* \"#utility.yul\":4370:4392   */\n      add\n        /* \"#utility.yul\":4341:4402   */\n      tag_65\n      jump\t// in\n    tag_117:\n        /* \"#utility.yul\":4331:4402   */\n      swap3\n      pop\n        /* \"#utility.yul\":4287:4412   */\n      pop\n        /* \"#utility.yul\":4451:4453   */\n      0x20\n        /* \"#utility.yul\":4477:4530   */\n      tag_118\n        /* \"#utility.yul\":4522:4529   */\n      dup6\n        /* \"#utility.yul\":4513:4519   */\n      dup3\n        /* \"#utility.yul\":4502:4511   */\n      dup7\n        /* \"#utility.yul\":4498:4520   */\n      add\n        /* \"#utility.yul\":4477:4530   */\n      tag_59\n      jump\t// in\n    tag_118:\n        /* \"#utility.yul\":4467:4530   */\n      swap2\n      pop\n        /* \"#utility.yul\":4422:4540   */\n      pop\n        /* \"#utility.yul\":4057:4547   */\n      swap3\n      pop\n      swap3\n      swap1\n      pop\n      jump\t// out\n        /* \"#utility.yul\":4553:4733   */\n    tag_66:\n        /* \"#utility.yul\":4601:4678   */\n      0x4e487b7100000000000000000000000000000000000000000000000000000000\n        /* \"#utility.yul\":4598:4599   */\n      0x00\n        /* \"#utility.yul\":4591:4679   */\n      mstore\n        /* \"#utility.yul\":4698:4702   */\n      0x11\n        /* \"#utility.yul\":4695:4696   */\n      0x04\n        /* \"#utility.yul\":4688:4703   */\n      mstore\n        /* \"#utility.yul\":4722:4726   */\n      0x24\n        /* \"#utility.yul\":4719:4720   */\n      0x00\n        /* \"#utility.yul\":4712:4727   */\n      revert\n        /* \"#utility.yul\":4739:5044   */\n    tag_38:\n        /* \"#utility.yul\":4779:4782   */\n      0x00\n        /* \"#utility.yul\":4798:4818   */\n      tag_121\n        /* \"#utility.yul\":4816:4817   */\n      dup3\n        /* \"#utility.yul\":4798:4818   */\n      tag_57\n      jump\t// in\n    tag_121:\n        /* \"#utility.yul\":4793:4818   */\n      swap2\n      pop\n        /* \"#utility.yul\":4832:4852   */\n      tag_122\n        /* \"#utility.yul\":4850:4851   */\n      dup4\n        /* \"#utility.yul\":4832:4852   */\n      tag_57\n      jump\t// in\n    tag_122:\n        /* \"#utility.yul\":4827:4852   */\n      swap3\n      pop\n        /* \"#utility.yul\":4986:4987   */\n      dup3\n        /* \"#utility.yul\":4918:4984   */\n      0xffffffffffffffffffffffffffffffffffffffffffffffffffffffffffffffff\n        /* \"#utility.yul\":4914:4988   */\n      sub\n        /* \"#utility.yul\":4911:4912   */\n      dup3\n        /* \"#utility.yul\":4908:4989   */\n      gt\n        /* \"#utility.yul\":4905:5012   */\n      iszero\n      tag_123\n      jumpi\n        /* \"#utility.yul\":4992:5010   */\n      tag_124\n      tag_66\n      jump\t// in\n    tag_124:\n        /* \"#utility.yul\":4905:5012   */\n    tag_123:\n        /* \"#utility.yul\":5036:5037   */\n      dup3\n        /* \"#utility.yul\":5033:5034   */\n      dup3\n        /* \"#utility.yul\":5029:5038   */\n      add\n        /* \"#utility.yul\":5022:5038   */\n      swap1\n      pop\n        /* \"#utility.yul\":4739:5044   */\n      swap3\n      swap2\n      pop\n      pop\n      jump\t// out\n        /* \"#utility.yul\":5050:5283   */\n    tag_40:\n        /* \"#utility.yul\":5089:5092   */\n      0x00\n        /* \"#utility.yul\":5112:5136   */\n      tag_126\n        /* \"#utility.yul\":5130:5135   */\n      dup3\n        /* \"#utility.yul\":5112:5136   */\n      tag_57\n      jump\t// in\n    tag_126:\n        /* \"#utility.yul\":5103:5136   */\n      swap2\n      pop\n        /* \"#utility.yul\":5158:5224   */\n      0xffffffffffffffffffffffffffffffffffffffffffffffffffffffffffffffff\n        /* \"#utility.yul\":5151:5156   */\n      dup3\n        /* \"#utility.yul\":5148:5225   */\n      sub\n        /* \"#utility.yul\":5145:5248   */\n      tag_127\n      jumpi\n        /* \"#utility.yul\":5228:5246   */\n      tag_128\n      tag_66\n      jump\t// in\n    tag_128:\n        /* \"#utility.yul\":5145:5248   */\n    tag_127:\n        /* \"#utility.yul\":5275:5276   */\n      0x01\n        /* \"#utility.yul\":5268:5273   */\n      dup3\n        /* \"#utility.yul\":5264:5277   */\n      add\n        /* \"#utility.yul\":5257:5277   */\n      swap1\n      pop\n        /* \"#utility.yul\":5050:5283   */\n      swap2\n      swap1\n      pop\n      jump\t// out\n        /* \"#utility.yul\":5289:5480   */\n    tag_45:\n        /* \"#utility.yul\":5329:5333   */\n      0x00\n        /* \"#utility.yul\":5349:5369   */\n      tag_130\n        /* \"#utility.yul\":5367:5368   */\n      dup3\n        /* \"#utility.yul\":5349:5369   */\n      tag_57\n      jump\t// in\n    tag_130:\n        /* \"#utility.yul\":5344:5369   */\n      swap2\n      pop\n        /* \"#utility.yul\":5383:5403   */\n      tag_131\n        /* \"#utility.yul\":5401:5402   */\n      dup4\n        /* \"#utility.yul\":5383:5403   */\n      tag_57\n      jump\t// in\n    tag_131:\n        /* \"#utility.yul\":5378:5403   */\n      swap3\n      pop\n        /* \"#utility.yul\":5422:5423   */\n      dup3\n        /* \"#utility.yul\":5419:5420   */\n      dup3\n        /* \"#utility.yul\":5416:5424   */\n      lt\n        /* \"#utility.yul\":5413:5447   */\n      iszero\n      tag_132\n      jumpi\n        /* \"#utility.yul\":5427:5445   */\n      tag_133\n      tag_66\n      jump\t// in\n    tag_133:\n        /* \"#utility.yul\":5413:5447   */\n    tag_132:\n        /* \"#utility.yul\":5472:5473   */\n      dup3\n        /* \"#utility.yul\":5469:5470   */\n      dup3\n        /* \"#utility.yul\":5465:5474   */\n      sub\n        /* \"#utility.yul\":5457:5474   */\n      swap1\n      pop\n        /* \"#utility.yul\":5289:5480   */\n      swap3\n      swap2\n      pop\n      pop\n      jump\t// out\n\n    auxdata: 0xa264697066735822122075871551ba7f76cb898d99afbf3f7a0346ce2a617561f47456ff8a7112dda42064736f6c634300080f0033\n}\n",
				"bytecode": {
					"linkReferences": {},
					"object": "608060405234801561001057600080fd5b50610967806100206000396000f3fe60806040526004361061004a5760003560e01c80631a21482d1461004f57806327e235e31461008c5780633f925f7a146100cb5780635421b037146100d5578063f274c89714610112575b600080fd5b34801561005b57600080fd5b50610076600480360381019061007191906106a6565b61013b565b6040516100839190610724565b60405180910390f35b34801561009857600080fd5b506100b360048036038101906100ae919061073f565b6101bc565b6040516100c29392919061077b565b60405180910390f35b6100d36101e6565b005b3480156100e157600080fd5b506100fc60048036038101906100f791906106a6565b61035c565b6040516101099190610724565b60405180910390f35b34801561011e57600080fd5b50610139600480360381019061013491906107f0565b6103dd565b005b6101436105f3565b6000808473ffffffffffffffffffffffffffffffffffffffff1673ffffffffffffffffffffffffffffffffffffffff168152602001908152602001600020600401600083815260200190815260200160002060405180604001604052908160008201548152602001600182015481525050905092915050565b60006020528060005260406000206000915090508060000154908060010154908060020154905083565b346000803373ffffffffffffffffffffffffffffffffffffffff1673ffffffffffffffffffffffffffffffffffffffff1681526020019081526020016000206000016000828254610237919061085f565b9250508190555060006040518060400160405280348152602001428152509050806000803373ffffffffffffffffffffffffffffffffffffffff1673ffffffffffffffffffffffffffffffffffffffff16815260200190815260200160002060030160008060003373ffffffffffffffffffffffffffffffffffffffff1673ffffffffffffffffffffffffffffffffffffffff16815260200190815260200160002060010154815260200190815260200160002060008201518160000155602082015181600101559050506000803373ffffffffffffffffffffffffffffffffffffffff1673ffffffffffffffffffffffffffffffffffffffff1681526020019081526020016000206001016000815480929190610354906108b5565b919050555050565b6103646105f3565b6000808473ffffffffffffffffffffffffffffffffffffffff1673ffffffffffffffffffffffffffffffffffffffff168152602001908152602001600020600301600083815260200190815260200160002060405180604001604052908160008201548152602001600182015481525050905092915050565b806000803373ffffffffffffffffffffffffffffffffffffffff1673ffffffffffffffffffffffffffffffffffffffff168152602001908152602001600020600001600082825461042e91906108fd565b9250508190555060006040518060400160405280838152602001428152509050806000803373ffffffffffffffffffffffffffffffffffffffff1673ffffffffffffffffffffffffffffffffffffffff16815260200190815260200160002060040160008060003373ffffffffffffffffffffffffffffffffffffffff1673ffffffffffffffffffffffffffffffffffffffff16815260200190815260200160002060020154815260200190815260200160002060008201518160000155602082015181600101559050506000803373ffffffffffffffffffffffffffffffffffffffff1673ffffffffffffffffffffffffffffffffffffffff168152602001908152602001600020600201600081548092919061054b906108b5565b91905055508273ffffffffffffffffffffffffffffffffffffffff166108fc839081150290604051600060405180830381858888f19350505050158015610596573d6000803e3d6000fd5b506000803373ffffffffffffffffffffffffffffffffffffffff1673ffffffffffffffffffffffffffffffffffffffff16815260200190815260200160002060020160008154809291906105e9906108b5565b9190505550505050565b604051806040016040528060008152602001600081525090565b600080fd5b600073ffffffffffffffffffffffffffffffffffffffff82169050919050565b600061063d82610612565b9050919050565b61064d81610632565b811461065857600080fd5b50565b60008135905061066a81610644565b92915050565b6000819050919050565b61068381610670565b811461068e57600080fd5b50565b6000813590506106a08161067a565b92915050565b600080604083850312156106bd576106bc61060d565b5b60006106cb8582860161065b565b92505060206106dc85828601610691565b9150509250929050565b6106ef81610670565b82525050565b60408201600082015161070b60008501826106e6565b50602082015161071e60208501826106e6565b50505050565b600060408201905061073960008301846106f5565b92915050565b6000602082840312156107555761075461060d565b5b60006107638482850161065b565b91505092915050565b61077581610670565b82525050565b6000606082019050610790600083018661076c565b61079d602083018561076c565b6107aa604083018461076c565b949350505050565b60006107bd82610612565b9050919050565b6107cd816107b2565b81146107d857600080fd5b50565b6000813590506107ea816107c4565b92915050565b600080604083850312156108075761080661060d565b5b6000610815858286016107db565b925050602061082685828601610691565b9150509250929050565b7f4e487b7100000000000000000000000000000000000000000000000000000000600052601160045260246000fd5b600061086a82610670565b915061087583610670565b9250827fffffffffffffffffffffffffffffffffffffffffffffffffffffffffffffffff038211156108aa576108a9610830565b5b828201905092915050565b60006108c082610670565b91507fffffffffffffffffffffffffffffffffffffffffffffffffffffffffffffffff82036108f2576108f1610830565b5b600182019050919050565b600061090882610670565b915061091383610670565b92508282101561092657610925610830565b5b82820390509291505056fea264697066735822122075871551ba7f76cb898d99afbf3f7a0346ce2a617561f47456ff8a7112dda42064736f6c634300080f0033",
					"opcodes": "PUSH1 0x80 PUSH1 0x40 MSTORE CALLVALUE DUP1 ISZERO PUSH2 0x10 JUMPI PUSH1 0x0 DUP1 REVERT JUMPDEST POP PUSH2 0x967 DUP1 PUSH2 0x20 PUSH1 0x0 CODECOPY PUSH1 0x0 RETURN INVALID PUSH1 0x80 PUSH1 0x40 MSTORE PUSH1 0x4 CALLDATASIZE LT PUSH2 0x4A JUMPI PUSH1 0x0 CALLDATALOAD PUSH1 0xE0 SHR DUP1 PUSH4 0x1A21482D EQ PUSH2 0x4F JUMPI DUP1 PUSH4 0x27E235E3 EQ PUSH2 0x8C JUMPI DUP1 PUSH4 0x3F925F7A EQ PUSH2 0xCB JUMPI DUP1 PUSH4 0x5421B037 EQ PUSH2 0xD5 JUMPI DUP1 PUSH4 0xF274C897 EQ PUSH2 0x112 JUMPI JUMPDEST PUSH1 0x0 DUP1 REVERT JUMPDEST CALLVALUE DUP1 ISZERO PUSH2 0x5B JUMPI PUSH1 0x0 DUP1 REVERT JUMPDEST POP PUSH2 0x76 PUSH1 0x4 DUP1 CALLDATASIZE SUB DUP2 ADD SWAP1 PUSH2 0x71 SWAP2 SWAP1 PUSH2 0x6A6 JUMP JUMPDEST PUSH2 0x13B JUMP JUMPDEST PUSH1 0x40 MLOAD PUSH2 0x83 SWAP2 SWAP1 PUSH2 0x724 JUMP JUMPDEST PUSH1 0x40 MLOAD DUP1 SWAP2 SUB SWAP1 RETURN JUMPDEST CALLVALUE DUP1 ISZERO PUSH2 0x98 JUMPI PUSH1 0x0 DUP1 REVERT JUMPDEST POP PUSH2 0xB3 PUSH1 0x4 DUP1 CALLDATASIZE SUB DUP2 ADD SWAP1 PUSH2 0xAE SWAP2 SWAP1 PUSH2 0x73F JUMP JUMPDEST PUSH2 0x1BC JUMP JUMPDEST PUSH1 0x40 MLOAD PUSH2 0xC2 SWAP4 SWAP3 SWAP2 SWAP1 PUSH2 0x77B JUMP JUMPDEST PUSH1 0x40 MLOAD DUP1 SWAP2 SUB SWAP1 RETURN JUMPDEST PUSH2 0xD3 PUSH2 0x1E6 JUMP JUMPDEST STOP JUMPDEST CALLVALUE DUP1 ISZERO PUSH2 0xE1 JUMPI PUSH1 0x0 DUP1 REVERT JUMPDEST POP PUSH2 0xFC PUSH1 0x4 DUP1 CALLDATASIZE SUB DUP2 ADD SWAP1 PUSH2 0xF7 SWAP2 SWAP1 PUSH2 0x6A6 JUMP JUMPDEST PUSH2 0x35C JUMP JUMPDEST PUSH1 0x40 MLOAD PUSH2 0x109 SWAP2 SWAP1 PUSH2 0x724 JUMP JUMPDEST PUSH1 0x40 MLOAD DUP1 SWAP2 SUB SWAP1 RETURN JUMPDEST CALLVALUE DUP1 ISZERO PUSH2 0x11E JUMPI PUSH1 0x0 DUP1 REVERT JUMPDEST POP PUSH2 0x139 PUSH1 0x4 DUP1 CALLDATASIZE SUB DUP2 ADD SWAP1 PUSH2 0x134 SWAP2 SWAP1 PUSH2 0x7F0 JUMP JUMPDEST PUSH2 0x3DD JUMP JUMPDEST STOP JUMPDEST PUSH2 0x143 PUSH2 0x5F3 JUMP JUMPDEST PUSH1 0x0 DUP1 DUP5 PUSH20 0xFFFFFFFFFFFFFFFFFFFFFFFFFFFFFFFFFFFFFFFF AND PUSH20 0xFFFFFFFFFFFFFFFFFFFFFFFFFFFFFFFFFFFFFFFF AND DUP2 MSTORE PUSH1 0x20 ADD SWAP1 DUP2 MSTORE PUSH1 0x20 ADD PUSH1 0x0 KECCAK256 PUSH1 0x4 ADD PUSH1 0x0 DUP4 DUP2 MSTORE PUSH1 0x20 ADD SWAP1 DUP2 MSTORE PUSH1 0x20 ADD PUSH1 0x0 KECCAK256 PUSH1 0x40 MLOAD DUP1 PUSH1 0x40 ADD PUSH1 0x40 MSTORE SWAP1 DUP2 PUSH1 0x0 DUP3 ADD SLOAD DUP2 MSTORE PUSH1 0x20 ADD PUSH1 0x1 DUP3 ADD SLOAD DUP2 MSTORE POP POP SWAP1 POP SWAP3 SWAP2 POP POP JUMP JUMPDEST PUSH1 0x0 PUSH1 0x20 MSTORE DUP1 PUSH1 0x0 MSTORE PUSH1 0x40 PUSH1 0x0 KECCAK256 PUSH1 0x0 SWAP2 POP SWAP1 POP DUP1 PUSH1 0x0 ADD SLOAD SWAP1 DUP1 PUSH1 0x1 ADD SLOAD SWAP1 DUP1 PUSH1 0x2 ADD SLOAD SWAP1 POP DUP4 JUMP JUMPDEST CALLVALUE PUSH1 0x0 DUP1 CALLER PUSH20 0xFFFFFFFFFFFFFFFFFFFFFFFFFFFFFFFFFFFFFFFF AND PUSH20 0xFFFFFFFFFFFFFFFFFFFFFFFFFFFFFFFFFFFFFFFF AND DUP2 MSTORE PUSH1 0x20 ADD SWAP1 DUP2 MSTORE PUSH1 0x20 ADD PUSH1 0x0 KECCAK256 PUSH1 0x0 ADD PUSH1 0x0 DUP3 DUP3 SLOAD PUSH2 0x237 SWAP2 SWAP1 PUSH2 0x85F JUMP JUMPDEST SWAP3 POP POP DUP2 SWAP1 SSTORE POP PUSH1 0x0 PUSH1 0x40 MLOAD DUP1 PUSH1 0x40 ADD PUSH1 0x40 MSTORE DUP1 CALLVALUE DUP2 MSTORE PUSH1 0x20 ADD TIMESTAMP DUP2 MSTORE POP SWAP1 POP DUP1 PUSH1 0x0 DUP1 CALLER PUSH20 0xFFFFFFFFFFFFFFFFFFFFFFFFFFFFFFFFFFFFFFFF AND PUSH20 0xFFFFFFFFFFFFFFFFFFFFFFFFFFFFFFFFFFFFFFFF AND DUP2 MSTORE PUSH1 0x20 ADD SWAP1 DUP2 MSTORE PUSH1 0x20 ADD PUSH1 0x0 KECCAK256 PUSH1 0x3 ADD PUSH1 0x0 DUP1 PUSH1 0x0 CALLER PUSH20 0xFFFFFFFFFFFFFFFFFFFFFFFFFFFFFFFFFFFFFFFF AND PUSH20 0xFFFFFFFFFFFFFFFFFFFFFFFFFFFFFFFFFFFFFFFF AND DUP2 MSTORE PUSH1 0x20 ADD SWAP1 DUP2 MSTORE PUSH1 0x20 ADD PUSH1 0x0 KECCAK256 PUSH1 0x1 ADD SLOAD DUP2 MSTORE PUSH1 0x20 ADD SWAP1 DUP2 MSTORE PUSH1 0x20 ADD PUSH1 0x0 KECCAK256 PUSH1 0x0 DUP3 ADD MLOAD DUP2 PUSH1 0x0 ADD SSTORE PUSH1 0x20 DUP3 ADD MLOAD DUP2 PUSH1 0x1 ADD SSTORE SWAP1 POP POP PUSH1 0x0 DUP1 CALLER PUSH20 0xFFFFFFFFFFFFFFFFFFFFFFFFFFFFFFFFFFFFFFFF AND PUSH20 0xFFFFFFFFFFFFFFFFFFFFFFFFFFFFFFFFFFFFFFFF AND DUP2 MSTORE PUSH1 0x20 ADD SWAP1 DUP2 MSTORE PUSH1 0x20 ADD PUSH1 0x0 KECCAK256 PUSH1 0x1 ADD PUSH1 0x0 DUP2 SLOAD DUP1 SWAP3 SWAP2 SWAP1 PUSH2 0x354 SWAP1 PUSH2 0x8B5 JUMP JUMPDEST SWAP2 SWAP1 POP SSTORE POP POP JUMP JUMPDEST PUSH2 0x364 PUSH2 0x5F3 JUMP JUMPDEST PUSH1 0x0 DUP1 DUP5 PUSH20 0xFFFFFFFFFFFFFFFFFFFFFFFFFFFFFFFFFFFFFFFF AND PUSH20 0xFFFFFFFFFFFFFFFFFFFFFFFFFFFFFFFFFFFFFFFF AND DUP2 MSTORE PUSH1 0x20 ADD SWAP1 DUP2 MSTORE PUSH1 0x20 ADD PUSH1 0x0 KECCAK256 PUSH1 0x3 ADD PUSH1 0x0 DUP4 DUP2 MSTORE PUSH1 0x20 ADD SWAP1 DUP2 MSTORE PUSH1 0x20 ADD PUSH1 0x0 KECCAK256 PUSH1 0x40 MLOAD DUP1 PUSH1 0x40 ADD PUSH1 0x40 MSTORE SWAP1 DUP2 PUSH1 0x0 DUP3 ADD SLOAD DUP2 MSTORE PUSH1 0x20 ADD PUSH1 0x1 DUP3 ADD SLOAD DUP2 MSTORE POP POP SWAP1 POP SWAP3 SWAP2 POP POP JUMP JUMPDEST DUP1 PUSH1 0x0 DUP1 CALLER PUSH20 0xFFFFFFFFFFFFFFFFFFFFFFFFFFFFFFFFFFFFFFFF AND PUSH20 0xFFFFFFFFFFFFFFFFFFFFFFFFFFFFFFFFFFFFFFFF AND DUP2 MSTORE PUSH1 0x20 ADD SWAP1 DUP2 MSTORE PUSH1 0x20 ADD PUSH1 0x0 KECCAK256 PUSH1 0x0 ADD PUSH1 0x0 DUP3 DUP3 SLOAD PUSH2 0x42E SWAP2 SWAP1 PUSH2 0x8FD JUMP JUMPDEST SWAP3 POP POP DUP2 SWAP1 SSTORE POP PUSH1 0x0 PUSH1 0x40 MLOAD DUP1 PUSH1 0x40 ADD PUSH1 0x40 MSTORE DUP1 DUP4 DUP2 MSTORE PUSH1 0x20 ADD TIMESTAMP DUP2 MSTORE POP SWAP1 POP DUP1 PUSH1 0x0 DUP1 CALLER PUSH20 0xFFFFFFFFFFFFFFFFFFFFFFFFFFFFFFFFFFFFFFFF AND PUSH20 0xFFFFFFFFFFFFFFFFFFFFFFFFFFFFFFFFFFFFFFFF AND DUP2 MSTORE PUSH1 0x20 ADD SWAP1 DUP2 MSTORE PUSH1 0x20 ADD PUSH1 0x0 KECCAK256 PUSH1 0x4 ADD PUSH1 0x0 DUP1 PUSH1 0x0 CALLER PUSH20 0xFFFFFFFFFFFFFFFFFFFFFFFFFFFFFFFFFFFFFFFF AND PUSH20 0xFFFFFFFFFFFFFFFFFFFFFFFFFFFFFFFFFFFFFFFF AND DUP2 MSTORE PUSH1 0x20 ADD SWAP1 DUP2 MSTORE PUSH1 0x20 ADD PUSH1 0x0 KECCAK256 PUSH1 0x2 ADD SLOAD DUP2 MSTORE PUSH1 0x20 ADD SWAP1 DUP2 MSTORE PUSH1 0x20 ADD PUSH1 0x0 KECCAK256 PUSH1 0x0 DUP3 ADD MLOAD DUP2 PUSH1 0x0 ADD SSTORE PUSH1 0x20 DUP3 ADD MLOAD DUP2 PUSH1 0x1 ADD SSTORE SWAP1 POP POP PUSH1 0x0 DUP1 CALLER PUSH20 0xFFFFFFFFFFFFFFFFFFFFFFFFFFFFFFFFFFFFFFFF AND PUSH20 0xFFFFFFFFFFFFFFFFFFFFFFFFFFFFFFFFFFFFFFFF AND DUP2 MSTORE PUSH1 0x20 ADD SWAP1 DUP2 MSTORE PUSH1 0x20 ADD PUSH1 0x0 KECCAK256 PUSH1 0x2 ADD PUSH1 0x0 DUP2 SLOAD DUP1 SWAP3 SWAP2 SWAP1 PUSH2 0x54B SWAP1 PUSH2 0x8B5 JUMP JUMPDEST SWAP2 SWAP1 POP SSTORE POP DUP3 PUSH20 0xFFFFFFFFFFFFFFFFFFFFFFFFFFFFFFFFFFFFFFFF AND PUSH2 0x8FC DUP4 SWAP1 DUP2 ISZERO MUL SWAP1 PUSH1 0x40 MLOAD PUSH1 0x0 PUSH1 0x40 MLOAD DUP1 DUP4 SUB DUP2 DUP6 DUP9 DUP9 CALL SWAP4 POP POP POP POP ISZERO DUP1 ISZERO PUSH2 0x596 JUMPI RETURNDATASIZE PUSH1 0x0 DUP1 RETURNDATACOPY RETURNDATASIZE PUSH1 0x0 REVERT JUMPDEST POP PUSH1 0x0 DUP1 CALLER PUSH20 0xFFFFFFFFFFFFFFFFFFFFFFFFFFFFFFFFFFFFFFFF AND PUSH20 0xFFFFFFFFFFFFFFFFFFFFFFFFFFFFFFFFFFFFFFFF AND DUP2 MSTORE PUSH1 0x20 ADD SWAP1 DUP2 MSTORE PUSH1 0x20 ADD PUSH1 0x0 KECCAK256 PUSH1 0x2 ADD PUSH1 0x0 DUP2 SLOAD DUP1 SWAP3 SWAP2 SWAP1 PUSH2 0x5E9 SWAP1 PUSH2 0x8B5 JUMP JUMPDEST SWAP2 SWAP1 POP SSTORE POP POP POP POP JUMP JUMPDEST PUSH1 0x40 MLOAD DUP1 PUSH1 0x40 ADD PUSH1 0x40 MSTORE DUP1 PUSH1 0x0 DUP2 MSTORE PUSH1 0x20 ADD PUSH1 0x0 DUP2 MSTORE POP SWAP1 JUMP JUMPDEST PUSH1 0x0 DUP1 REVERT JUMPDEST PUSH1 0x0 PUSH20 0xFFFFFFFFFFFFFFFFFFFFFFFFFFFFFFFFFFFFFFFF DUP3 AND SWAP1 POP SWAP2 SWAP1 POP JUMP JUMPDEST PUSH1 0x0 PUSH2 0x63D DUP3 PUSH2 0x612 JUMP JUMPDEST SWAP1 POP SWAP2 SWAP1 POP JUMP JUMPDEST PUSH2 0x64D DUP2 PUSH2 0x632 JUMP JUMPDEST DUP2 EQ PUSH2 0x658 JUMPI PUSH1 0x0 DUP1 REVERT JUMPDEST POP JUMP JUMPDEST PUSH1 0x0 DUP2 CALLDATALOAD SWAP1 POP PUSH2 0x66A DUP2 PUSH2 0x644 JUMP JUMPDEST SWAP3 SWAP2 POP POP JUMP JUMPDEST PUSH1 0x0 DUP2 SWAP1 POP SWAP2 SWAP1 POP JUMP JUMPDEST PUSH2 0x683 DUP2 PUSH2 0x670 JUMP JUMPDEST DUP2 EQ PUSH2 0x68E JUMPI PUSH1 0x0 DUP1 REVERT JUMPDEST POP JUMP JUMPDEST PUSH1 0x0 DUP2 CALLDATALOAD SWAP1 POP PUSH2 0x6A0 DUP2 PUSH2 0x67A JUMP JUMPDEST SWAP3 SWAP2 POP POP JUMP JUMPDEST PUSH1 0x0 DUP1 PUSH1 0x40 DUP4 DUP6 SUB SLT ISZERO PUSH2 0x6BD JUMPI PUSH2 0x6BC PUSH2 0x60D JUMP JUMPDEST JUMPDEST PUSH1 0x0 PUSH2 0x6CB DUP6 DUP3 DUP7 ADD PUSH2 0x65B JUMP JUMPDEST SWAP3 POP POP PUSH1 0x20 PUSH2 0x6DC DUP6 DUP3 DUP7 ADD PUSH2 0x691 JUMP JUMPDEST SWAP2 POP POP SWAP3 POP SWAP3 SWAP1 POP JUMP JUMPDEST PUSH2 0x6EF DUP2 PUSH2 0x670 JUMP JUMPDEST DUP3 MSTORE POP POP JUMP JUMPDEST PUSH1 0x40 DUP3 ADD PUSH1 0x0 DUP3 ADD MLOAD PUSH2 0x70B PUSH1 0x0 DUP6 ADD DUP3 PUSH2 0x6E6 JUMP JUMPDEST POP PUSH1 0x20 DUP3 ADD MLOAD PUSH2 0x71E PUSH1 0x20 DUP6 ADD DUP3 PUSH2 0x6E6 JUMP JUMPDEST POP POP POP POP JUMP JUMPDEST PUSH1 0x0 PUSH1 0x40 DUP3 ADD SWAP1 POP PUSH2 0x739 PUSH1 0x0 DUP4 ADD DUP5 PUSH2 0x6F5 JUMP JUMPDEST SWAP3 SWAP2 POP POP JUMP JUMPDEST PUSH1 0x0 PUSH1 0x20 DUP3 DUP5 SUB SLT ISZERO PUSH2 0x755 JUMPI PUSH2 0x754 PUSH2 0x60D JUMP JUMPDEST JUMPDEST PUSH1 0x0 PUSH2 0x763 DUP5 DUP3 DUP6 ADD PUSH2 0x65B JUMP JUMPDEST SWAP2 POP POP SWAP3 SWAP2 POP POP JUMP JUMPDEST PUSH2 0x775 DUP2 PUSH2 0x670 JUMP JUMPDEST DUP3 MSTORE POP POP JUMP JUMPDEST PUSH1 0x0 PUSH1 0x60 DUP3 ADD SWAP1 POP PUSH2 0x790 PUSH1 0x0 DUP4 ADD DUP7 PUSH2 0x76C JUMP JUMPDEST PUSH2 0x79D PUSH1 0x20 DUP4 ADD DUP6 PUSH2 0x76C JUMP JUMPDEST PUSH2 0x7AA PUSH1 0x40 DUP4 ADD DUP5 PUSH2 0x76C JUMP JUMPDEST SWAP5 SWAP4 POP POP POP POP JUMP JUMPDEST PUSH1 0x0 PUSH2 0x7BD DUP3 PUSH2 0x612 JUMP JUMPDEST SWAP1 POP SWAP2 SWAP1 POP JUMP JUMPDEST PUSH2 0x7CD DUP2 PUSH2 0x7B2 JUMP JUMPDEST DUP2 EQ PUSH2 0x7D8 JUMPI PUSH1 0x0 DUP1 REVERT JUMPDEST POP JUMP JUMPDEST PUSH1 0x0 DUP2 CALLDATALOAD SWAP1 POP PUSH2 0x7EA DUP2 PUSH2 0x7C4 JUMP JUMPDEST SWAP3 SWAP2 POP POP JUMP JUMPDEST PUSH1 0x0 DUP1 PUSH1 0x40 DUP4 DUP6 SUB SLT ISZERO PUSH2 0x807 JUMPI PUSH2 0x806 PUSH2 0x60D JUMP JUMPDEST JUMPDEST PUSH1 0x0 PUSH2 0x815 DUP6 DUP3 DUP7 ADD PUSH2 0x7DB JUMP JUMPDEST SWAP3 POP POP PUSH1 0x20 PUSH2 0x826 DUP6 DUP3 DUP7 ADD PUSH2 0x691 JUMP JUMPDEST SWAP2 POP POP SWAP3 POP SWAP3 SWAP1 POP JUMP JUMPDEST PUSH32 0x4E487B7100000000000000000000000000000000000000000000000000000000 PUSH1 0x0 MSTORE PUSH1 0x11 PUSH1 0x4 MSTORE PUSH1 0x24 PUSH1 0x0 REVERT JUMPDEST PUSH1 0x0 PUSH2 0x86A DUP3 PUSH2 0x670 JUMP JUMPDEST SWAP2 POP PUSH2 0x875 DUP4 PUSH2 0x670 JUMP JUMPDEST SWAP3 POP DUP3 PUSH32 0xFFFFFFFFFFFFFFFFFFFFFFFFFFFFFFFFFFFFFFFFFFFFFFFFFFFFFFFFFFFFFFFF SUB DUP3 GT ISZERO PUSH2 0x8AA JUMPI PUSH2 0x8A9 PUSH2 0x830 JUMP JUMPDEST JUMPDEST DUP3 DUP3 ADD SWAP1 POP SWAP3 SWAP2 POP POP JUMP JUMPDEST PUSH1 0x0 PUSH2 0x8C0 DUP3 PUSH2 0x670 JUMP JUMPDEST SWAP2 POP PUSH32 0xFFFFFFFFFFFFFFFFFFFFFFFFFFFFFFFFFFFFFFFFFFFFFFFFFFFFFFFFFFFFFFFF DUP3 SUB PUSH2 0x8F2 JUMPI PUSH2 0x8F1 PUSH2 0x830 JUMP JUMPDEST JUMPDEST PUSH1 0x1 DUP3 ADD SWAP1 POP SWAP2 SWAP1 POP JUMP JUMPDEST PUSH1 0x0 PUSH2 0x908 DUP3 PUSH2 0x670 JUMP JUMPDEST SWAP2 POP PUSH2 0x913 DUP4 PUSH2 0x670 JUMP JUMPDEST SWAP3 POP DUP3 DUP3 LT ISZERO PUSH2 0x926 JUMPI PUSH2 0x925 PUSH2 0x830 JUMP JUMPDEST JUMPDEST DUP3 DUP3 SUB SWAP1 POP SWAP3 SWAP2 POP POP JUMP INVALID LOG2 PUSH5 0x6970667358 0x22 SLT KECCAK256 PUSH22 0x871551BA7F76CB898D99AFBF3F7A0346CE2A617561F4 PUSH21 0x56FF8A7112DDA42064736F6C634300080F00330000 "
				},
				"gasEstimates": {
					"creation": {
						"codeDepositCost": "481400",
						"executionCost": "518",
						"totalCost": "481918"
					},
					"external": {
						"balances(address)": "infinite",
						"depositeMoney()": "infinite",
						"getDepositTransaction(address,uint256)": "infinite",
						"getWithdrawTransaction(address,uint256)": "infinite",
						"withdrawMoney(address,uint256)": "infinite"
					}
				},
				"methodIdentifiers": {
					"balances(address)": "27e235e3",
					"depositeMoney()": "3f925f7a",
					"getDepositTransaction(address,uint256)": "5421b037",
					"getWithdrawTransaction(address,uint256)": "1a21482d",
					"withdrawMoney(address,uint256)": "f274c897"
				}
			},
			"storageLayout": {
				"storage": [
					{
						"astId": 28,
						"contract": "contracts/ExampleMappingStruct.sol:MappingStructExample",
						"label": "balances",
						"offset": 0,
						"slot": "0",
						"type": "t_mapping(t_address,t_struct(Balance)23_storage)"
					}
				],
				"types": {
					"t_address": {
						"encoding": "inplace",
						"label": "address",
						"numberOfBytes": "20"
					},
					"t_mapping(t_address,t_struct(Balance)23_storage)": {
						"encoding": "mapping",
						"key": "t_address",
						"label": "mapping(address => struct MappingStructExample.Balance)",
						"numberOfBytes": "32",
						"value": "t_struct(Balance)23_storage"
					},
					"t_mapping(t_uint256,t_struct(Transaction)6_storage)": {
						"encoding": "mapping",
						"key": "t_uint256",
						"label": "mapping(uint256 => struct MappingStructExample.Transaction)",
						"numberOfBytes": "32",
						"value": "t_struct(Transaction)6_storage"
					},
					"t_struct(Balance)23_storage": {
						"encoding": "inplace",
						"label": "struct MappingStructExample.Balance",
						"members": [
							{
								"astId": 8,
								"contract": "contracts/ExampleMappingStruct.sol:MappingStructExample",
								"label": "totalBalance",
								"offset": 0,
								"slot": "0",
								"type": "t_uint256"
							},
							{
								"astId": 10,
								"contract": "contracts/ExampleMappingStruct.sol:MappingStructExample",
								"label": "numDeposits",
								"offset": 0,
								"slot": "1",
								"type": "t_uint256"
							},
							{
								"astId": 12,
								"contract": "contracts/ExampleMappingStruct.sol:MappingStructExample",
								"label": "numWithdrawals",
								"offset": 0,
								"slot": "2",
								"type": "t_uint256"
							},
							{
								"astId": 17,
								"contract": "contracts/ExampleMappingStruct.sol:MappingStructExample",
								"label": "deposits",
								"offset": 0,
								"slot": "3",
								"type": "t_mapping(t_uint256,t_struct(Transaction)6_storage)"
							},
							{
								"astId": 22,
								"contract": "contracts/ExampleMappingStruct.sol:MappingStructExample",
								"label": "withdrawals",
								"offset": 0,
								"slot": "4",
								"type": "t_mapping(t_uint256,t_struct(Transaction)6_storage)"
							}
						],
						"numberOfBytes": "160"
					},
					"t_struct(Transaction)6_storage": {
						"encoding": "inplace",
						"label": "struct MappingStructExample.Transaction",
						"members": [
							{
								"astId": 3,
								"contract": "contracts/ExampleMappingStruct.sol:MappingStructExample",
								"label": "amount",
								"offset": 0,
								"slot": "0",
								"type": "t_uint256"
							},
							{
								"astId": 5,
								"contract": "contracts/ExampleMappingStruct.sol:MappingStructExample",
								"label": "timestamp",
								"offset": 0,
								"slot": "1",
								"type": "t_uint256"
							}
						],
						"numberOfBytes": "64"
					},
					"t_uint256": {
						"encoding": "inplace",
						"label": "uint256",
						"numberOfBytes": "32"
					}
				}
			},
			"userdoc": {
				"kind": "user",
				"methods": {},
				"version": 1
			}
		}
	}
}